:03000000020040BB
:030023000200E0F8
:03002B000200D9F7
:10004000759890D2AC757010757179757201752FB5
:100050000078781201D575B0FF75C80075CBFC75B6
:10006000CA1885CBCD85CACCD2ADD2AF8572787592
:1000700079FE75907F20B2FD757010757179C27828
:1000800075A0FFD29BD27FD290D2CA857899307F5B
:10009000032090FAC2CAC290307804C27801A4E565
:1000A00078B4FF2AE572B4050375720005727570A5
:1000B0001075717978781201D58572787579FE019D
:1000C000C3C2B27E027FFADFFEDEFA0200757E0254
:1000D0007FFADFFEDEFA020078C2CFD278C27F322A
:1000E000C0E0C0D0C00085CBCD85CACC109805C279
:1000F0009902014CA870E599B8000B7570017571F3
:1001000079F5780201CEB80116A871B87F022141B5
:10011000B4FE02213FB4FF02213F7570022137B8BF
:1001200002057570032137B8030575700121377515
:10013000700FC2A00201CEA8710571F60201CE7641
:10014000FF757010757179C27F0201CEC299307E41
:100150000FC27E207D05C27F0201CEC27D0201CE8C
:10016000A870B81007C29B1201DE216FB811277565
:100170007012A871B87F0A757010C27D757FFF215B
:10018000BFE6B4FE07757000D27D21BFB4FF0D75C8
:100190007010C27D21BFB8120E757013A871057161
:1001A00086991201DE21CEB8130E757011A8710563
:0301B000718699BC
:1001B3001201E721CE75701FC2A121CED27E86998E
:1001C3001201DE75717978781201D5D000D0D0D0C4
:1001D300E032740876FF08D5E0FA22C0077F14DF07
:0D01E300FED00722C0077F32DFFED00722CA
:00000001FF
