:03000000020040BB
:03000B00020128C7
:03001B0002014B94
:0300230002016176
:03002B0002015976
:100040001202E575C800757400758C3C758AB07530
:10005000891175200075A0FF753801D2A9D2ABD2E5
:10006000ADD2AFD28C12031EE538B40105901A0050
:10007000019AB40205901A10019AB40305901A402F
:10008000019AB40405901A70019AB40505901A00FB
:10009000019AB4060D901A00019A20010B753800E0
:1000A00001A8753800020125858330858231C200A0
:1000B0007532007533001203D76003020125120365
:1000C000D7F5341203D7F5351203D7F536853083CB
:1000D0008531821203D7B4000201F9B4FF03020193
:1000E00025F5F0901F0793F5CBE5F0901EFF93F5F3
:1000F000CA85CBCD85CACCD2CA85308385318212E0
:1001000003D785358D85368BA834D28E30000BC24F
:1001100000C28EC2CAD2A702012570F0C28EC2CA26
:10012000D2A70200CD020065C28D758C3C758AB0E5
:10013000C00020B2100574A874B80A04C2A62148F1
:10014000B80C05D2A6757400D00032C28F85358DEB
:1001500085368BD803A8341432C2CF10A702D2A799
:1001600032C0E0C0D0C000109805C299020263A856
:1001700070E599B8000BB40505757001C29D0202C7
:10018000DEB8011FB4FE0930790302027C02026A64
:10019000B4FF08757000D29D0202DE757002F57121
:1001A0000202DEB80208757003F5720202DEB803BF
:0901B0000575700121BC75700F8A
:1001B9000202DEC001A871A972B98026B80005F54E
:1001C90080020258B801075580F580020258B8022A
:1001D900074580F580020258B803046580F580025E
:1001E9000258B9A026B80005F5A0020258B80107BF
:1001F90055A0F5A0020258B8020745A0F5A00202D1
:1002090058B8030465A0F5A0020258B9A026B800A1
:1002190005F5A0020258B8010755A0F5A002025839
:10022900B8020745A0F5A0020258B8030465A0F575
:10023900A0020258B80003F74158B8010457F74122
:1002490058B8020447F74158B8030467F74158758D
:1002590071FF7572FFD0010202DE307825C2784144
:10026900DE7570117572791203DD8578991203DDD7
:100279000202DE75701A1203DD7599001203DD02A0
:1002890002DEA870B81115757012A872B87F024104
:10029900CAE6B4FE0241CAB4FF1C41CAB8120575C8
:1002A900701341BFB8130575701141BFB81A0241E7
:1002B900D175701F41DEA872057286991203DD415E
:1002C900DE7878120315C27A7570007572FFD278DC
:1002D900D29D7599FFD000D0D0D0E0327598B0D2B8
:1002E900AC7570007571FF7572FF752E00752F0062
:1002F9007878120315786012031578681203157857
:1003090050120315785812031575B0FF740876FF5B
:0F03190008D5E0FA22207A1C307C1978787960B8
:100328007A08D279D27AE7F60809DAFA78601203FD
:1003380015C27CC279307A04C2B26146D2B2207C3E
:1003480018307D15D27CC27D786079687A08E7F626
:100358000809DAFA7868120315207D18307E15D25C
:100368007DC27E786879507A08E7F60809DAFA7863
:1003780050120315207E18307F15D27EC27F785028
:1003880079587A08E7F60809DAFA78581203152234
:10039800207C067860D27C61BF207D067868D27D9B
:1003A80061BF207E067850D27E61BF207F067858D4
:1003B800D27F61BF78F022A60108A60208A603082A
:1003C800A60408A60508A60608A6070876FF22E5DB
:0E03D8003305339322C0077F14DFFED00722C7
:0F1A000000053CB0C101C301C501C7010001FFD2
:101A1000000457AEC702D303D501F202D304D702A4
:101A2000D606F206D303D501F202F104D402C70AA6
:051A300000060004FFA8
:101A4000000145FDC428D228C414F33C0014D22858
:101A5000D428D214F33C0014D228F328D214D43C56
:0F1A60000014D428C4270001C414F33C0014FF61
:101A700000034B28F308D408D301D201D101D708C1
:101A8000F304D301D201D101D708F304D101C70176
:051A9000D101C608FFB2
:081FB800F1F2F4F4F6F7F8FF72
:081FB00017B72AD7091F18FF1B
:081FC800F8F9FAFAFBFBFCFF3B
:081FC0008C5B156704900CFF17
:081FD800FCFCFDFDFDFDFEFF18
:081FD00044AC093482C806FF8D
:031FF800FCFDFBF2
:031FF000DC5CCFE7
:00000001FF
