:03000000020040BB
:03000B000202935B
:030023000202A630
:03002B0002029E30
:1000400012042A75C80075CBFE75CA0685CBCD850E
:10005000CACC7589117580FF7590FF75A0FF752A50
:1000600000120525D2A9D2ADD2AF020267120463F5
:1000700030701FC27079017A007B37740020A002B3
:10008000D2E0305202D2E420A102D2E7FC7DFF127E
:1000900004DD7590F730970201A93057030201EB98
:1000A00012053E7530070201D630960201BD305769
:1000B000030201EB12053E7530080201D6309502AD
:1000C00001D13057030201EB12053E7530090201E0
:1000D000D630940201E13057030201EBC2A70201BE
:1000E000E97590FB30970201F83057030201EB12DB
:1000F000053E7530040201D6309602210C305703BC
:100100000201EB12053E7530050201D63095022141
:10011000203057030201EB12053E7530060201D66E
:10012000309402212E3057030201EB0201E9759051
:10013000FD30970221453057030201EB12053E7551
:1001400030010201D630960221593057030201EBEB
:1001500012053E7530020201D6309502216D3057EE
:10016000030201EB12053E7530030201D630940202
:10017000217B3057030201EB0201E97590FE3097B5
:1001800002218F3057030201EB1205250201D63000
:10019000960221A33057030201EB12053E75300091
:1001A0000201D630950221B13057030201EB020162
:1001B000EB30940221D23057030201EB2052177921
:1001C000057A007B207C017D007E387F021204DDF1
:0601D00021D6C25721EB0D
:1001D60075405E758C3C758AB0D28C85CBCD85CA50
:1001E600CCD2CAD257300207C202105202D25230C3
:1001F6000007C20020A030416730812BE537B4FFED
:1002060041E536B4FF3CE535B40137E534B4023296
:10021600E533B4032DE532B40428E531B40523E50E
:1002260030B4061E120525D2A5C2A6C2A0C25175BB
:100236004064758C3C758AB0D28C85CBCD85CACC92
:10024600D2CAE540B45A06C2CAD2A2415A7005754E
:1002560040FF4167308019205116D2517540104138
:1002660076C2A5D2A6C28CC2CA120525D2A2D2A037
:10027600300107C201105002D250305004C2A141D1
:1002860090308004C2A14190D2A102006DC28D754A
:100296008C3C758AB0154032C2CF10A202D2A2326F
:1002A600C0E0C0D0C000109805C2990203A8A8708B
:1002B600E599B8000BB40205757001C29D020423CE
:1002C600B8011FB4FE093079030203C10203AFB4BB
:1002D600FF08757000D29D020423757002F5710245
:1002E6000423B80208757003F572020423B80305E7
:1002F600757001610175700F020423C001A871A910
:1003060072B98026B80005F58002039DB80107552D
:1003160080F58002039DB802074580F58002039DA3
:10032600B803046580F58002039DB9A026B80005D0
:10033600F5A002039DB8010755A0F5A002039DB8DC
:06034600020745A0F5A02E
:10034C0002039DB8030465A0F5A002039DB9A02685
:10035C00B80005F5A002039DB8010755A0F5A00251
:10036C00039DB8020745A0F5A002039DB8030465E0
:10037C00A0F5A002039DB80003F7619DB8010457D6
:10038C00F7619DB8020447F7619DB8030467F761F4
:10039C009D7571FF7572FFD001020423307825C260
:1003AC0078812375701175727912051C85789912F4
:1003BC00051C02042375701A12051C759900120590
:1003CC001C020423A870B81115757012A872B87F9E
:1003DC0002810FE6B4FE02810FB4FF1C810FB8122C
:1003EC00057570138104B813057570118104B81A62
:1003FC0002811675701F8123A872057286991205E9
:10040C001C8123787812045AC27A7570007572FFB9
:10041C00D278D29D7599FFD000D0D0D0E0327598AB
:10042C00B0D2AC7570007571FF7572FF752E0075CA
:10043C002F00787812045A786012045A78681204E3
:10044C005A785012045A785812045A75B0FF74082E
:10045C0076FF08D5E0FA22207A1C307C197878795E
:10046C00607A08D279D27AE7F60809DAFA7860125B
:10047C00045AC27CC279307A04C2B2818BD2B220C7
:10048C007C18307D15D27CC27D786079687A08E75B
:0D049C00F60809DAFA786812045A207D1873
:1004A900307E15D27DC27E786879507A08E7F608E1
:1004B90009DAFA785012045A207E18307F15D27E54
:1004C900C27F785079587A08E7F60809DAFA785835
:1004D90012045A22207C067860D27CA104207D0671
:1004E9007868D27DA104207E067850D27EA10420AE
:1004F9007F067858D27FA10478F022A60108A602C7
:1005090008A60308A60408A60508A60608A607085B
:1005190076FF22C0077F14DFFED007227530FF75F2
:1005290031FF7532FF7533FF7534FF7535FF753649
:10053900FF7537FF2285363785353685343585335E
:0B054900348532338531328530312299
:00000001FF
