:03000000020026D5
:03000B0002052DBE
:100023000205381206BC7589117530001207AE75CA
:10003300370075408375414375422375430075440A
:1000430000752800752000752100758C3C758AB0F9
:10005300D2A9D2AF1206F57590F73097020171302D
:1000630040030201BC1207BB7532070201B7309689
:100073000201853040030201BC1207BB753208023E
:1000830001B730950201993040030201BC1207BB4E
:100093007532090201B730940201BF3040030201F7
:1000A300BC304507C245D2460201B7304607C245B8
:1000B300C2460201B7D245C2460201B77590FB3072
:1000C300970201D63040030201BC1207BB7532040C
:1000D3000201B730960201EA3040030201BC120765
:1000E300BB7532050201B730950201FE30400302B1
:1000F30001BC1207BB7532060201B7309402210F0F
:100103003040030201BC7521000201B77590FD3038
:10011300970221263040030201BC1207BB7532014E
:100123000201B7309602213A3040030201BC1207A4
:10013300BB7532020201B7309502214E30400302F3
:1001430001BC1207BB7532030201B7309402215C74
:100153003040030201BC0201B77590FE30970221C3
:100163006F3040030201BCD2420201B73096022134
:10017300833040030201BC1207BB7532000201B792
:1001830030950221933040030201BCD2410201B7F2
:1001930030940221B279057A007B207C017D007EB8
:1001A300387F0012076F3040030201BC0201B7C25F
:0B01B300400201BCD2400201BCE5305C
:1001BE00307004D24221D7307107C27175301021D0
:1001CE00D7307205C2727530123045127538FF7510
:1001DE0039FF753AFF753BFF753CFF02051230463D
:1001EE0012753800753900753A00753B00753C0084
:1001FE0002051285203B85213C753900753A00B405
:10020E000031753820C27030420675300002050A82
:10021E00A8321207AEB8010675300102050AB803FE
:10022E000675300302050AB8040675300402050A85
:10023E00020512B401457538803042067530000251
:10024E00050AA8321207AEB8010675301002050A6B
:10025E00B80308753012D28C02050AB8040875303E
:10026E0013D28C02050AB8070675301602050AB8B5
:10027E00080675301702050A020512B403507538C8
:10028E001030420675300002050AE520A83212072A
:10029E00AEB80104B2E741D7B80204B2E641D7B80E
:1002AE000304B2E541D7B80404B2E441D7B805045B
:1002BE00B2E341D7B80604B2E241D7B80704B2E1BF
:1002CE0041D7B80806B2E041D7F520020512B404B2
:1002DE005075380830420675300002050AE521A82F
:1002EE00321207AEB80104B2E7612AB80204B2E6D0
:1002FE00612AB80304B2E5612AB80404B2E4612AA3
:10030E00B80504B2E3612AB80604B2E2612AB8075E
:10031E0004B2E1612AB80806B2E0612AF5210205AD
:10032E00127DFF753880B41030753980753AFF3004
:0F033E00420675300102050A30411B79057A002D
:10034D007B207C017D007E38E53375F00AA42532D3
:10035D00FF12076F02050D02051285373AB41240E0
:10036D00753920304208753001C28C02050AA83259
:10037D001207AEB800047F016193B801047F0261DA
:10038D0093B809087F047D007E20619C30470E796B
:10039D00027A007B2E7C0112076F02050D020512F9
:1003AD00B41347753910304208753001C28C0205FF
:1003BD000AA8321207AEB800047F0861DDB8010447
:1003CD007F0161DDB802047F0261DDB803087F049F
:1003DD007D007E2061E630470E79047A007B2E7C0D
:1003ED000112076F02050D020512753902B41629A7
:1003FD00753A0030420675300102050AA83212071F
:10040D00AEB800028142B801057530608142B80274
:10041D00057530618142020512B46009753AF07BB1
:10042D00307E31813CB4611E753A0F7B327E3330A4
:10043D00421175301679037A007B207C0112076F0B
:10044D0002050D0204E1753901B41746753A003005
:10045D00420675300102050AA8321207AE79037AF9
:10046D00037B20B801077530707C108196B80207A8
:10047D007530717C208196B803077530727C408190
:10048D0096B8040B7530737C8012076F02050D0250
:10049D000512B47009753AC07B417E4081CDB471AF
:1004AD0009753A307B437E4281CDB47209753A0CA1
:0904BD007B457E4481CDB4733F00
:1004C600753A037B477E4630421175301779037AB9
:1004D600007B207C0012076F02050D30411E790358
:1004E6007A00E53575F00AA42534FC7D00E5337500
:1004F600F00AA42532FF12076F02050D02051275D8
:100506003000C28C753700C2471207AEC241C242E4
:10051600783879FEE6F48980F5A01207CEE923F94A
:1005260008B4FEF0020057C28D758C3C758AB0D2B5
:100536004732C0E0C0D0C000109805C29902063A02
:10054600A870E599B8000BB40105757001C29D024B
:1005560006B5B8011FB4FE09307903020653020638
:1005660041B4FF08757000D29D0206B5757002F59C
:10057600710206B5B80208757003F5720206B5B8C1
:100586000305757001A19375700F0206B5C001A829
:1005960071A972B98026B80005F58002062FB80148
:1005A600075580F58002062FB802074580F58002C0
:1005B600062FB803046580F58002062FB9A026B879
:1005C6000005F5A002062FB8010755A0F5A0020602
:1005D6002FB8020745A0F5A002062FB8030465A0B0
:1005E600F5A002062FB9A026B80005F5A002062F31
:1005F600B8010755A0F5A002062FB8020745A0F5D9
:10060600A002062FB8030465A0F5A002062FB800C5
:1006160003F7C12FB8010457F7C12FB8020447F7F3
:05062600C12FB8030420
:10062B0067F7C12F7571FF7572FFD0010206B530E8
:10063B007825C278C1B57570117572791207C585A9
:10064B0078991207C50206B575701A1207C5759908
:10065B00001207C50206B5A870B81115757012A85F
:10066B0072B87F02C1A1E6B4FE02C1A1B4FF1CC1E6
:10067B00A1B81205757013C196B81305757011C129
:10068B0096B81A02C1A875701FC1B5A872057286FB
:10069B00991207C5C1B578781206ECC27A7570004D
:1006AB007572FFD278D29D7599FFD000D0D0D0E073
:1006BB00327598B0D2AC7570007571FF7572FF759D
:1006CB002E00752F0078781206EC78601206EC7805
:1006DB00681206EC78501206EC78581206EC75B0DE
:1006EB00FF740876FF08D5E0FA22207A1C307C19BB
:1006FB00787879607A08D279D27AE7F60809DAFA4B
:10070B0078601206ECC27CC279307A04C2B2E11D69
:10071B00D2B2207C18307D15D27CC27D786079688E
:10072B007A08E7F60809DAFA78681206EC207D18E1
:10073B00307E15D27DC27E786879507A08E7F6084C
:10074B0009DAFA78501206EC207E18307F15D27E2B
:10075B00C27F785079587A08E7F60809DAFA7858A0
:10076B001206EC22207C067860D27CE196207D0676
:10077B007868D27DE196207E067850D27EE1962075
:10078B007F067858D27FE19678F022A60108A60260
:10079B0008A60308A60408A60508A60608A60708C7
:1007AB0076FF227535FF7534FF7533FF7532FF22E7
:1007BB0085343585333485323322C0077F14DFFE11
:1007CB00D00722C006C0077E027FFADFFEDEFAD01A
:0407DB0007D006221B
:00000001FF
