:03000000020040BB
:03001B0002016D72
:0300230002018F48
:10004000120313758921758D9C858D8B75A0FF75A5
:1000500090FF7580FF7534F07535F0752000752AB6
:1000600000753000753500753407753114D2ABD288
:10007000AFD28E12034C30700FC27079017A007BC0
:1000800037AC357DFF1203C6309205100007019D85
:1000900030570201FB75311475200001F9309005CD
:1000A00010020701B230570201FB75310A752000BA
:1000B00001F930930510030701C730570201FB75A2
:1000C000310075200001F930910510010701F5306C
:1000D000570201FBD250752000E535B4010201E35F
:1000E000B4030575311401F9B40F0201F0B41F0314
:1000F00075310A01F9C25701FBD25720A01275349D
:100100001F75351FE531B41461753100C250216A85
:1001100020A212753401753501E531B40A4C7531F0
:1001200000C250216A20A110753407753507305080
:1001300039C250753100216AE534B41F0575350F99
:10014000216AB40105753503216AB40717E531B496
:10015000140575350F216AB40A05753503216A75D2
:100160003507216A753407753114020073C0E0C089
:10017000D0C28FE530B53204C2802188B4C8097579
:100180003000D280E531F5320530D0D0D0E032C039
:10019000E0C0D0C000109805C299020291A870E595
:1001A00099B8000BB40405757001C29D02030CB828
:0E01B000011FB4FE093079030202AA02029870
:1001BE00B4FF08757000D29D02030C757002F571C4
:1001CE0002030CB80208757003F57202030CB80333
:1001DE000575700121EA75700F02030CC001A8713C
:1001EE00A972B98026B80005F580020286B801070B
:1001FE005580F580020286B802074580F58002021E
:10020E0086B803046580F580020286B9A026B80080
:10021E0005F5A0020286B8010755A0F5A0020286D8
:10022E00B8020745A0F5A0020286B8030465A0F542
:10023E00A0020286B9A026B80005F5A0020286B873
:10024E00010755A0F5A0020286B8020745A0F5A049
:10025E00020286B8030465A0F5A0020286B8000368
:10026E00F74186B8010457F74186B8020447F741B3
:10027E0086B8030467F741867571FF7572FFD0016A
:10028E0002030C307825C278610C75701175727985
:10029E0012040585789912040502030C75701A1262
:1002AE00040575990012040502030CA870B8111507
:1002BE00757012A872B87F0241F8E6B4FE0241F8DA
:1002CE00B4FF1C41F8B8120575701341EDB8130553
:1002DE0075701141EDB81A0241FF75701F610CA8BF
:1002EE007205728699120405610C7878120343C266
:1002FE007A7570007572FFD278D29D7599FFD00015
:10030E00D0D0D0E0327598B0D2AC7570007571FF58
:10031E007572FF752E00752F007878120343786082
:05032E00120343786892
:100333001203437850120343785812034375B0FFF6
:10034300740876FF08D5E0FA22207A1C307C1978ED
:100353007879607A08D279D27AE7F60809DAFA78F6
:1003630060120343C27CC279307A04C2B26174D290
:10037300B2207C18307D15D27CC27D786079687A92
:1003830008E7F60809DAFA7868120343207D183083
:100393007E15D27DC27E786879507A08E7F608091F
:1003A300DAFA7850120343207E18307F15D27EC2CA
:1003B3007F785079587A08E7F60809DAFA785812FC
:1003C300034322207C067860D27C61ED207D067891
:1003D30068D27D61ED207E067850D27E61ED207F6C
:1003E300067858D27F61ED78F022A60108A60208AC
:1003F300A60308A60408A60508A60608A607087605
:0B040300FF22C0077F14DFFED007229D
:00000001FF
