:03000000020040BB
:03002300020319BC
:03002B00020314B9
:1000400012049D75C80075CB3C75CAB085CBCD85B3
:10005000CACC758911753514753400753300753245
:10006000007531017530017541007540007543061A
:1000700075420075450C754400754712754600754C
:1000800080FF752000752A00D256D2ADD2AFD28C37
:10009000D2CA1204D630001FC200C204C205C20672
:1000A000C207105004D25001B785CBCD85CACC759C
:1000B0003514753400D25630800201C53057022104
:1000C00020D200211430810201D4305047783030E2
:1000D0005738211830820201E330503878313057D8
:1000E00029211830830201F2305029783230571A12
:1000F00021183084022106305007783330570B2105
:10010000187534372114C25721200685CBCD85CAF6
:10011000CC753514D2572120E535700475350506A8
:100120007835791412058FE535700875351420502F
:100130000205347834793C12058FE534B43C0A75F5
:1001400034002050040533D2567833793C12058FA1
:10015000E533B43C0875330020500205327832791B
:100160001812058FE532B4180875320020500205C8
:1001700031E530B4020E7831791D12058FE531B4C6
:100180001D3621B0B404022196B406022196B409AA
:10019000022196B40B0E7831791F12058FE531B428
:1001A0001F1621B07831792012058FE531B420086F
:0601B00075310120500230
:1001B600053070037531017830790D12058FE53001
:1001C600B40D03753001700375300178417917124B
:1001D600058F7840793B12058F7843791712058F82
:1001E6007842793B12058F7845791712058F784446
:1001F600793B12058F7847791712058F7846793B38
:1002060012058F2056024159E532B54109E533B54D
:1002160040047F034148E532B54309E533B542045E
:100226007F034148E532B54509E533B544047F030C
:100236004148E532B54709E533B546047F034148F1
:100246004159C25679057A007B207C037D007E38B1
:1002560012055030500590081041EA3004087C0120
:10026600AA41AB40418B3005087C02AA43AB424110
:100276008B3006087C03AA45AB44418B3007627C71
:1002860004AA47AB4674B7F475A0FEF5901205A014
:100296007438F475A0FDF5901205A07404F475A0E9
:1002A600FBF5901205A0900800EC93F475A0F7F505
:1002B600901205A0900810780279EFE675F00A848E
:1002C60093F489A0F5901205A0E923F9E5F093F4DB
:1002D60089A0F5901205A0E923F908B9FEDD02030D
:1002E60011900800783079FEE675F00A8493F48957
:0302F600A0F590E0
:1002F9001205A0E923F9E5F093F489A0F590120518
:10030900A0E923F908B9FEDD020092C2CF15353202
:10031900C0E0C0D0C000109805C29902041BA870A3
:10032900E599B8000BB40305757001C29D020496E6
:10033900B8011FB4FE09307903020434020422B45F
:10034900FF08757000D29D020496757002F571025E
:100359000496B80208757003F572020496B803058D
:10036900757001617475700F020496C001A871A9B6
:1003790072B98026B80005F580020410B801075546
:1003890080F580020410B802074580F58002041048
:10039900B803046580F580020410B9A026B80005E9
:1003A900F5A0020410B8010755A0F5A0020410B881
:1003B900020745A0F5A0020410B8030465A0F5A042
:1003C900020410B9A026B80005F5A0020410B8016E
:1003D9000755A0F5A0020410B8020745A0F5A00230
:1003E9000410B8030465A0F5A0020410B80003F7CF
:1003F9008110B8010457F78110B8020447F781103A
:10040900B8030467F781107571FF7572FFD0010297
:100419000496307825C278819675701175727912B3
:10042900059785789912059702049675701A120531
:1004390097759900120597020496A870B811157559
:100449007012A872B87F028182E6B4FE028182B47A
:0A045900FF1C8182B81205757013B4
:100463008177B813057570118177B81A0281897580
:10047300701F8196A87205728699120597819678E6
:10048300781204CDC27A7570007572FFD278D29D4E
:100493007599FFD000D0D0D0E0327598B0D2AC754A
:1004A30070007571FF7572FF752E00752F007878D7
:1004B3001204CD78601204CD78681204CD785012FE
:1004C30004CD78581204CD75B0FF740876FF08D5B3
:1004D300E0FA22207A1C307C19787879607A08D285
:1004E30079D27AE7F60809DAFA78601204CDC27C89
:1004F300C279307A04C2B281FED2B2207C18307D38
:1005030015D27CC27D786079687A08E7F60809DA43
:10051300FA78681204CD207D18307E15D27DC27E14
:10052300786879507A08E7F60809DAFA78501204FD
:10053300CD207E18307F15D27EC27F785079587ACD
:1005430008E7F60809DAFA78581204CD22207C0667
:100553007860D27CA177207D067868D27DA1772050
:100563007E067850D27EA177207F067858D27FA16D
:100573007778F022A60108A60208A60308A60408B5
:10058300A60508A60608A6070876FF22E6D3994023
:03059300027600ED
:1005960022C0077F14DFFED00722C006C0077E02F6
:0B05A6007FFADFFEDEFAD007D006224D
:10080000BB822F8F969DBD83BF9FB7000000000065
:10081000FBC26FCFD6DDFDC3FFDFF7784440404019
:00000001FF
